:020000040000FA
:100000000C945D000C9485000C9485000C94850084
:100010000C9485000C9485000C9485000C9485004C
:100020000C9485000C9485000C9485000C9485003C
:100030000C9485000C9485000C9485000C9485002C
:100040000C9496030C9485000C9406040C94E00325
:100050000C9485000C9485000C9485000C9485000C
:100060000C9438040C948500000000002400270044
:100070002A0000000000250028002B0004040404CE
:100080000404040402020202020203030303030342
:10009000010204081020408001020408102001021F
:1000A00004081020000000080002010000030407FB
:1000B0000000000000000000570511241FBECFEF14
:1000C000D8E0DEBFCDBF11E0A0E0B1E0EEE8FEE099
:1000D00002C005900D92AE38B107D9F722E0AEE824
:1000E000B1E001C01D92A03EB207E1F710E0CDE5FE
:1000F000D0E004C02197FE010E943F07CC35D10714
:10010000C9F70E9490050C9445070C94000090E0FC
:10011000FC01EC55FF4F2491FC01E057FF4F349157
:10012000FC01E458FF4FE491EE23C9F0222339F09B
:10013000233001F1A8F4213019F1223029F1F0E047
:10014000EE0FFF1FEE58FF4FA591B4918FB7F894B3
:10015000EC91611126C030953E233C938FBF0895EA
:100160002730A9F02830C9F0243049F78091800069
:100170008F7D03C0809180008F7780938000DFCFD8
:1001800084B58F7784BDDBCF84B58F7DFBCF809125
:10019000B0008F778093B000D2CF8091B0008F7D78
:1001A000F9CF3E2BDACF8E50806480937C00809113
:1001B0007A00806480937A0080917A0086FDFCCF7B
:1001C00080917800909179000895E0912602F09155
:1001D0002702309729F010922302109222020994EC
:1001E00008950895AF92BF92CF92DF92EF92FF925F
:1001F0000F931F93CF93DF936C017B018B01040F4F
:10020000151FEB015E01AE18BF08C017D10759F0EA
:100210006991D601ED91FC910190F081E02DC6012C
:100220000995892B79F7C501DF91CF911F910F9126
:10023000FF90EF90DF90CF90BF90AF900895FC01BA
:10024000538D448D252F30E0842F90E0821B930B3B
:10025000541710F0CF96089501970895FC01918DE1
:10026000828D981761F0A28DAE0FBF2FB11D5D96E4
:100270008C91928D9F5F9F73928F90E008958FEF86
:100280009FEF0895FC01918D828D981731F0828D3A
:10029000E80FF11D858D90E008958FEF9FEF089591
:1002A000FC01918D228D892F90E0805C9F4F821BF5
:1002B00091098F739927089587E392E00E94500176
:1002C00021E0892B09F420E0822F089580E090E05E
:1002D000892B29F00E945C0181110C940000089583
:1002E000FC01A48DA80FB92FB11DA35ABF4F2C91AB
:1002F000848D90E001968F739927848FA689B789A2
:100300002C93A089B1898C91837080648C93938D98
:10031000848D981306C00288F389E02D80818F7D3B
:1003200080830895EF92FF920F931F93CF93DF93F3
:10033000EC0181E0888F9B8D8C8D98131AC0E88921
:10034000F989808185FF15C09FB7F894EE89FF89F0
:100350006083E889F98980818370806480839FBF8E
:1003600081E090E0DF91CF911F910F91FF90EF908E
:100370000895F62E0B8D10E00F5F1F4F0F7311279E
:10038000E02E8C8D8E110CC00FB607FCFACFE889D9
:10039000F989808185FFF5CFCE010E947001F1CFF0
:1003A000EB8DEC0FFD2FF11DE35AFF4FF0829FB74D
:1003B000F8940B8FEA89FB8980818062CFCFCF933D
:1003C000DF93EC01888D8823B9F0AA89BB89E8897D
:1003D000F9898C9185FD03C0808186FD0DC00FB623
:1003E00007FCF7CF8C9185FFF2CF808185FFEDCFA1
:1003F000CE010E947001E9CFDF91CF910895209145
:10040000D401260F3327331F21323105ECF420911C
:10041000F801FC0190E080E0243069F082E008956A
:10042000A091D4012191AC014C545E4FA40FB52F83
:10043000B11D2C930196861798F38091D401680F13
:100440006093D40180E0089581E008951092F8014E
:1004500081E08093FA011092F90161E082E10E944B
:10046000870061E083E10E948700E9EBF0E0808192
:100470008E7F808380818D7F808388E48093B80025
:1004800085E48093BC0008950895E0912502809151
:100490002402E81730F4F0E0E257FE4F808190E04C
:1004A00008958FEF9FEF0895909125028091240287
:1004B0002FEF3FEF981748F4E92FF0E0E257FE4F97
:1004C000208130E09F5F90932502C90108958091BB
:1004D000240290912502891B990B0895CF93DF93F5
:1004E000CB01EA01642F0E94FF01CE01DF91CF9181
:1004F0000895CF93DF931F92CDB7DEB7698361E094
:10050000CE0101960E94FF0181E090E00F90DF9103
:10051000CF91089590E080E00895FC0101900020C3
:10052000E9F73197AF01481B590BBC0187E392E013
:100530000C94F2008F929F92AF92BF920F931F93F1
:10054000CF93DF93CDB7DEB7A1970FB6F894DEBF98
:100550000FBECDBF19A2423008F44AE08E010F5DF4
:100560001F4F842E912CB12CA12CA50194010E9427
:100570000E07E62FB901CA01EA30F4F4E05DD801B4
:10058000EE938D01232B242B252B79F790E080E02F
:10059000109719F0CD010E948D02A1960FB6F89424
:1005A000DEBF0FBECDBFDF91CF911F910F91BF90E6
:1005B000AF909F908F900895E95CE1CFCF92DF924A
:1005C000EF92FF92CF93DF936B017C016DE287E3A3
:1005D00092E00E949201EC0166277727CB016C190B
:1005E0007D098E099F094AE00E949A028C0F9D1F87
:1005F000DF91CF91FF90EF90DF90CF900895CF9350
:10060000DF930E948D02EC0184E291E00E948D0252
:100610008C0F9D1FDF91CF910895CF93DF93BC0185
:10062000990F880B990B97FF0CC00E94DE02EC011A
:1006300084E291E00E948D028C0F9D1FDF91CF918B
:1006400008954AE00E949A02F2CF6091280284ED58
:1006500092E00E94790287E291E00E948D028091EF
:100660002802909129020C940D03BC01990F880B6C
:10067000990B97FD0C94DE024AE00C949A02CF93FA
:10068000DF9385ED8093BC008091B0019091B10122
:10069000A091B201B091B3010796A11DB11D23E055
:1006A000B695A795979587952A95D1F72091BC0087
:1006B00024FD03C01092F80136C04091B001509162
:1006C000B1016091B2017091B301452B462B472BCC
:1006D00069F30097A105B10541F02AE22A95F1F7E7
:1006E00000C00197A109B109E1CF8091AF0191E06C
:1006F0009093AE018823B9F0C091B800D091BA00B0
:100700008091BC008A7B8093BC0060E082E10E9403
:10071000870060E083E10E9487000E942602D09358
:10072000BA00C093B800DF91CF9108951F920F9245
:100730000FB60F9211242F933F938F939F93AF93F4
:10074000BF938091330290913402A0913502B09111
:1007500036023091320223E0230F2D3758F50196EF
:10076000A11DB11D20933202809333029093340275
:10077000A0933502B093360280912E0290912F0201
:10078000A0913002B09131020196A11DB11D80935C
:100790002E0290932F02A0933002B0933102BF91AA
:1007A000AF919F918F913F912F910F900FBE0F901E
:1007B0001F90189526E8230F0296A11DB11DD2CFD8
:1007C0001F920F920FB60F9211242F933F934F93C6
:1007D0005F936F937F938F939F93AF93BF93EF93A9
:1007E000FF9387E392E00E947001FF91EF91BF9128
:1007F000AF919F918F917F916F915F914F913F91B9
:100800002F910F900FBE0F901F9018951F920F926F
:100810000FB60F9211242F938F939F93EF93FF9313
:10082000E0914702F09148028081E0914D02F09101
:100830004E0282FD1BC09081809150028F5F8F73AA
:1008400020915102821741F0E0915002F0E0E95C02
:10085000FD4F958F80935002FF91EF919F918F9163
:100860002F910F900FBE0F901F9018958081F4CF9D
:100870001F920F920FB60F9211242F933F934F9315
:100880005F936F937F938F939F93AF93BF93EF93F8
:10089000FF938091B900887F803609F44AC0F0F553
:1008A000883209F4A7C018F5803109F49BC0B8F468
:1008B000882309F4F9C0883009F494C0FF91EF91BE
:1008C000BF91AF919F918F917F916F915F914F9168
:1008D0003F912F910F900FBE0F901F901895883168
:1008E00009F488C0803251F78093F70114C0803436
:1008F00009F49DC040F48033B9F38833F9F680934E
:10090000F70185ECB0C0803509F485C0883509F45D
:1009100096C0883499F60E943F03D0CF883909F4F5
:100920008CC038F5883729F050F4883611F08037BC
:1009300029F683E08093F8011092F60157C08838B9
:1009400009F47BC0803919F0803809F0B7CF809165
:10095000F601803208F071C0E091F60181E08E0F5F
:100960008093F6018091BB00F0E0EA52FE4F808355
:100970003DC0803B39F0E0F4803A09F479C0883A10
:1009800009F09CCF84E08093F8011092D501109279
:10099000D401E0912002F091210209958091D401C7
:1009A00081110FC081E08093D4011092B40109C07D
:1009B000803C09F4A6CF883C09F4A3CF883B09F01A
:1009C0007DCFE091D50181E08E0F8093D501F0E0DD
:1009D000EC54FE4F80818093BB009091D5018091B3
:1009E000D40129C080911D028093BB0085EC8093C7
:1009F000BC0064CF90911C0280911B02981758F59F
:100A0000E0911C0281E08E0F80931C02F0E0E55023
:100A1000FE4F8081E9CFE0911C0281E08E0F809330
:100A20001C028091BB00F0E0E550FE4F8083909166
:100A30001C0280911B029817C8F285E8D8CFE0917C
:100A40001C0281E08E0F80931C028091BB00F0E0BD
:100A5000E550FE4F80838091FA0181115CCF81E0E7
:100A60008093F90184EA8093BC001092F80126CFAC
:100A700085EC8093BC001092F8018091F6018032E1
:100A800030F4E091F601F0E0EA52FE4F10826091FE
:100A9000F60170E0E0911E02F0911F0286ED91E0F8
:100AA00009951092F6010ACF1092F70134CFE7E3CF
:100AB000F2E01382128288EE93E0A0E0B0E084833B
:100AC0009583A683B78324E031E03183208325EC2E
:100AD00030E03587248724EC30E03787268720EC08
:100AE00030E0318B208B21EC30E0338B228B22ECF9
:100AF00030E0358B248B26EC30E0378B268B118E43
:100B0000128E138E148EE4EDF2E01382128284832F
:100B10009583A683B78386E191E0918380830895CE
:100B2000789484B5826084BD84B5816084BD85B5C8
:100B3000826085BD85B5816085BD80916E008160D4
:100B400080936E001092810080918100826080937A
:100B5000810080918100816080938100809180007C
:100B60008160809380008091B10084608093B100A7
:100B70008091B00081608093B00080917A008460A1
:100B800080937A0080917A00826080937A008091CD
:100B90007A00816080937A0080917A0080688093E7
:100BA0007A001092C100E0914702F091480282E081
:100BB0008083E0914302F09144021082E09145026B
:100BC000F09146028FEC808310924F02E0914B022D
:100BD000F0914C0286E08083E0914902F0914A0254
:100BE000808180618083E0914902F0914A02808196
:100BF00088608083E0914902F0914A028081806898
:100C00008083E0914902F0914A0280818F7D808348
:100C100010922502109224021092230210922202B6
:100C20000E94260285EE90E090932102809320029C
:100C300081EF90E090931F0280931E0280E18093E9
:100C4000BA0085E293E09093270280932602EFE9B1
:100C5000F0E02491EBE8F0E084918823C1F090E08B
:100C6000880F991FFC01E859FF4FC591D491FC01F1
:100C7000EE58FF4FA591B4919FB7F8948881E22F69
:100C8000E0958E2388838C91E823EC939FBFEAE95B
:100C9000F0E02491E6E8F0E08491882399F090E078
:100CA000880F991FFC01E859FF4FA591B491FC01F1
:100CB000EE58FF4F859194918FB7F894EC91E22B09
:100CC000EC938FBF82E0C82E8CEFD82EEE24EA94EE
:100CD000FE2C00E010E08FE00E94D30090932D02E4
:100CE00080932C020E940D038EE00E94D300EC0141
:100CF00090932B0280932A029C01990F440B550B71
:100D00002F5F334041095109A4E6B0E00E94030778
:100D1000A70196010E94E4062536310514F024E669
:100D200030E037FF02C030E020E03093290220930A
:100D30002802A897DCF561E08AE00E94870082E43F
:100D400091E00E94FF028FE591E00E948D02809168
:100D50002802909129020E9435038AE691E00E94C0
:100D6000FF0280912C0290912D02843F91402CF53E
:100D700061E08FE00E9487008CE691E00E94FF0214
:100D80008FE791E00E948D0280912C0290912D02BC
:100D90000E9435030115110509F49DCF0E945C01E5
:100DA000882309F498CF0E94000095CF60E08AE084
:100DB0000E94870080E591E0C4CF60E08FE00E9450
:100DC000870085E791E0DACF052E97FB1EF40094AB
:100DD0000E94FB0657FD07D00E940E0707FC03D0B8
:100DE0004EF40C94FB0650954095309521953F4F5D
:100DF0004F4F5F4F089590958095709561957F4F07
:100E00008F4F9F4F08950E943007A59F900DB49F6C
:100E1000900DA49F800D911D11240895A1E21A2E1A
:100E2000AA1BBB1BFD010DC0AA1FBB1FEE1FFF1F8E
:100E3000A217B307E407F50720F0A21BB30BE40BDE
:100E4000F50B661F771F881F991F1A9469F7609525
:100E50007095809590959B01AC01BD01CF010895DF
:100E6000A29FB001B39FC001A39F700D811D1124EB
:100E7000911DB29F700D811D1124911D0895EE0FDB
:100E8000FF1F0590F491E02D0994F894FFCF000026
:100E900000009201F2001F01DF0150012E0142010A
:100EA0000000000079026E028A02440267025402C6
:100EB00045020D0A0053656E74206D6F6973747579
:100EC00072652070657263656E746167653A2000B3
:100ED00057617465722070756D70204F4E005761B8
:100EE0007465722070756D70204F4646004D6F69B5
:100EF00073747572653A200025004C696768742028
:100F00004F4E004C69676874204F4646004C696735
:0C0F10006874204C6576656C3A20000087
:107E0000112484B714BE81FFF0D085E080938100F7
:107E100082E08093C00088E18093C10086E0809377
:107E2000C20080E18093C4008EE0C9D0259A86E02C
:107E300020E33CEF91E0309385002093840096BBD3
:107E4000B09BFECF1D9AA8958150A9F7CC24DD24C4
:107E500088248394B5E0AB2EA1E19A2EF3E0BF2EE7
:107E6000A2D0813461F49FD0082FAFD0023811F036
:107E7000013811F484E001C083E08DD089C08234E0
:107E800011F484E103C0853419F485E0A6D080C0E4
:107E9000853579F488D0E82EFF2485D0082F10E0AE
:107EA000102F00270E291F29000F111F8ED06801E7
:107EB0006FC0863521F484E090D080E0DECF843638
:107EC00009F040C070D06FD0082F6DD080E0C81688
:107ED00080E7D80618F4F601B7BEE895C0E0D1E017
:107EE00062D089930C17E1F7F0E0CF16F0E7DF06D8
:107EF00018F0F601B7BEE89568D007B600FCFDCFD4
:107F0000A601A0E0B1E02C9130E011968C91119780
:107F100090E0982F8827822B932B1296FA010C0160
:107F200087BEE89511244E5F5F4FF1E0A038BF0790
:107F300051F7F601A7BEE89507B600FCFDCF97BE46
:107F4000E89526C08437B1F42ED02DD0F82E2BD052
:107F50003CD0F601EF2C8F010F5F1F4F84911BD097
:107F6000EA94F801C1F70894C11CD11CFA94CF0C13
:107F7000D11C0EC0853739F428D08EE10CD085E9AC
:107F80000AD08FE07ACF813511F488E018D01DD067
:107F900080E101D065CF982F8091C00085FFFCCF94
:107FA0009093C60008958091C00087FFFCCF809118
:107FB000C00084FD01C0A8958091C6000895E0E648
:107FC000F0E098E1908380830895EDDF803219F02E
:107FD00088E0F5DFFFCF84E1DECF1F93182FE3DFCA
:107FE0001150E9F7F2DF1F91089580E0E8DFEE27F6
:047FF000FF270994CA
:027FFE00040479
:00000001FF
